{
  "transactions": [
    {
      "hash": "0x87a78c00a29055c86e9ede8b57e815275991f9af9910d5f1b79feed016b11b21",
      "transactionType": "CALL",
      "contractName": "BeraReserveToken",
      "contractAddress": "0x885a71e726fe7828d84b876e42c48f97990a5c9d",
      "function": "grantRole(bytes32,address)",
      "arguments": [
        "0x0000000000000000000000000000000000000000000000000000000000000000",
        "0x8a25AB76278FA62979Eb40D7Aa1e569447CA68c0"
      ],
      "transaction": {
        "from": "0x061bc6f643038e4d6561af4ebbc0b127cc5316cf",
        "to": "0x885a71e726fe7828d84b876e42c48f97990a5c9d",
        "gas": "0x12785",
        "value": "0x0",
        "input": "0x2f2ff15d00000000000000000000000000000000000000000000000000000000000000000000000000000000000000008a25ab76278fa62979eb40d7aa1e569447ca68c0",
        "nonce": "0x13e",
        "chainId": "0x138de"
      },
      "additionalContracts": [],
      "isFixedGasLimit": false
    },
    {
      "hash": "0x00f8f120a35d5011ec74380aa5e22c0bd794b0711c6ddae07370c86d374f6f0c",
      "transactionType": "CALL",
      "contractName": "BeraReserveToken",
      "contractAddress": "0x885a71e726fe7828d84b876e42c48f97990a5c9d",
      "function": "revokeRole(bytes32,address)",
      "arguments": [
        "0x0000000000000000000000000000000000000000000000000000000000000000",
        "0x061Bc6f643038E4d6561aF4EBbc0B127cc5316cF"
      ],
      "transaction": {
        "from": "0x061bc6f643038e4d6561af4ebbc0b127cc5316cf",
        "to": "0x885a71e726fe7828d84b876e42c48f97990a5c9d",
        "gas": "0x9627",
        "value": "0x0",
        "input": "0xd547741f0000000000000000000000000000000000000000000000000000000000000000000000000000000000000000061bc6f643038e4d6561af4ebbc0b127cc5316cf",
        "nonce": "0x13f",
        "chainId": "0x138de"
      },
      "additionalContracts": [],
      "isFixedGasLimit": false
    },
    {
      "hash": "0x79a4088b8c56eff4f119d4314f80a7bc3b1d27e28120657f0e5d56e153bb57a3",
      "transactionType": "CALL",
      "contractName": "sBeraReserve",
      "contractAddress": "0xdb062b6769cc17ddd055e1a4001f7709bed0c2c0",
      "function": "pushManagement(address)",
      "arguments": [
        "0x8a25AB76278FA62979Eb40D7Aa1e569447CA68c0"
      ],
      "transaction": {
        "from": "0x061bc6f643038e4d6561af4ebbc0b127cc5316cf",
        "to": "0xdb062b6769cc17ddd055e1a4001f7709bed0c2c0",
        "gas": "0x11273",
        "value": "0x0",
        "input": "0x46f68ee90000000000000000000000008a25ab76278fa62979eb40d7aa1e569447ca68c0",
        "nonce": "0x140",
        "chainId": "0x138de"
      },
      "additionalContracts": [],
      "isFixedGasLimit": false
    },
    {
      "hash": "0x51162e03aa6b19fc6758119ecd154f408ea05d8f7455f2840844cf102db9de25",
      "transactionType": "CALL",
      "contractName": "BeraReserveStaking",
      "contractAddress": "0x6dc3fbee136385d5b32a103f4bb6d9fd5e2f8762",
      "function": "pushManagement(address)",
      "arguments": [
        "0x8a25AB76278FA62979Eb40D7Aa1e569447CA68c0"
      ],
      "transaction": {
        "from": "0x061bc6f643038e4d6561af4ebbc0b127cc5316cf",
        "to": "0x6dc3fbee136385d5b32a103f4bb6d9fd5e2f8762",
        "gas": "0x1032d",
        "value": "0x0",
        "input": "0x46f68ee90000000000000000000000008a25ab76278fa62979eb40d7aa1e569447ca68c0",
        "nonce": "0x141",
        "chainId": "0x138de"
      },
      "additionalContracts": [],
      "isFixedGasLimit": false
    },
    {
      "hash": "0xf01ea4893554fa8f2859cc6b095d9a81658921e5e797c0193756e3c0126a9a3b",
      "transactionType": "CALL",
      "contractName": "DistributorV2",
      "contractAddress": "0x5a7fa3a2e1c7c794413f1dac409f1ce60666fcab",
      "function": "pushPolicy(address)",
      "arguments": [
        "0x8a25AB76278FA62979Eb40D7Aa1e569447CA68c0"
      ],
      "transaction": {
        "from": "0x061bc6f643038e4d6561af4ebbc0b127cc5316cf",
        "to": "0x5a7fa3a2e1c7c794413f1dac409f1ce60666fcab",
        "gas": "0xf9c4",
        "value": "0x0",
        "input": "0xa15ad0770000000000000000000000008a25ab76278fa62979eb40d7aa1e569447ca68c0",
        "nonce": "0x142",
        "chainId": "0x138de"
      },
      "additionalContracts": [],
      "isFixedGasLimit": false
    },
    {
      "hash": "0x9759fe0dbe8d7dd543365af683894a78cf410b255eae17c3be1bc869ce8a10e8",
      "transactionType": "CALL",
      "contractName": "BeraReserveLockUp",
      "contractAddress": "0xab36e285d57679ebbe95b58afa0961951f21c08b",
      "function": "transferOwnership(address)",
      "arguments": [
        "0x8a25AB76278FA62979Eb40D7Aa1e569447CA68c0"
      ],
      "transaction": {
        "from": "0x061bc6f643038e4d6561af4ebbc0b127cc5316cf",
        "to": "0xab36e285d57679ebbe95b58afa0961951f21c08b",
        "gas": "0x103b2",
        "value": "0x0",
        "input": "0xf2fde38b0000000000000000000000008a25ab76278fa62979eb40d7aa1e569447ca68c0",
        "nonce": "0x143",
        "chainId": "0x138de"
      },
      "additionalContracts": [],
      "isFixedGasLimit": false
    },
    {
      "hash": "0x19ddf3d54a047ffd208b88afa539630b29e6b8c97715e4a94b2f5d377867d77b",
      "transactionType": "CALL",
      "contractName": "BeraReserveFeeDistributor",
      "contractAddress": "0xc6cb8a7425855f2931709ac9c19e4622b555e646",
      "function": "transferOwnership(address)",
      "arguments": [
        "0x8a25AB76278FA62979Eb40D7Aa1e569447CA68c0"
      ],
      "transaction": {
        "from": "0x061bc6f643038e4d6561af4ebbc0b127cc5316cf",
        "to": "0xc6cb8a7425855f2931709ac9c19e4622b555e646",
        "gas": "0x10374",
        "value": "0x0",
        "input": "0xf2fde38b0000000000000000000000008a25ab76278fa62979eb40d7aa1e569447ca68c0",
        "nonce": "0x144",
        "chainId": "0x138de"
      },
      "additionalContracts": [],
      "isFixedGasLimit": false
    },
    {
      "hash": "0x467a651cdc0a9e581e7c26ab4c177024daf02cdf2b5f3abb5d30b7f3bb5df6d2",
      "transactionType": "CALL",
      "contractName": "BeraReservePreBondClaims",
      "contractAddress": "0x8b1104c8adf85b67ab22f0a39985a75e2ddc4650",
      "function": "transferOwnership(address)",
      "arguments": [
        "0x8a25AB76278FA62979Eb40D7Aa1e569447CA68c0"
      ],
      "transaction": {
        "from": "0x061bc6f643038e4d6561af4ebbc0b127cc5316cf",
        "to": "0x8b1104c8adf85b67ab22f0a39985a75e2ddc4650",
        "gas": "0x10374",
        "value": "0x0",
        "input": "0xf2fde38b0000000000000000000000008a25ab76278fa62979eb40d7aa1e569447ca68c0",
        "nonce": "0x145",
        "chainId": "0x138de"
      },
      "additionalContracts": [],
      "isFixedGasLimit": false
    }
  ],
  "receipts": [
    {
      "status": "0x1",
      "cumulativeGasUsed": "0x1374ae6",
      "logs": [
        {
          "address": "0x885a71e726fe7828d84b876e42c48f97990a5c9d",
          "topics": [
            "0x2f8788117e7eff1d82e926ec794901d17c78024a50270940304540a733656f0d",
            "0x0000000000000000000000000000000000000000000000000000000000000000",
            "0x0000000000000000000000008a25ab76278fa62979eb40d7aa1e569447ca68c0",
            "0x000000000000000000000000061bc6f643038e4d6561af4ebbc0b127cc5316cf"
          ],
          "data": "0x",
          "blockHash": "0x2ba31bf6744dc1029cb70e70186accdfeb2469e0a4b6114961e65e2b61367c4f",
          "blockNumber": "0x463be8",
          "blockTimestamp": "0x6818911e",
          "transactionHash": "0x87a78c00a29055c86e9ede8b57e815275991f9af9910d5f1b79feed016b11b21",
          "transactionIndex": "0x86",
          "logIndex": "0x8e",
          "removed": false
        }
      ],
      "logsBloom": "0x00000004000000000000000400000000000000000000000000000000000000000000000000000000000000000000000000000100000000000000000000000000000000000000000000000000000100000000000000000000000000000000000000000000020000000000000000000800000000000000000000000000001000000000000000000000000000000000000000000000000000000000000080000000000000000000000000000000000000000000000000200000001000000080000000000000000020000000000000000000000000000000000100000000000020000000000000000000000010000000000000000000000000000000000000000000",
      "type": "0x2",
      "transactionHash": "0x87a78c00a29055c86e9ede8b57e815275991f9af9910d5f1b79feed016b11b21",
      "transactionIndex": "0x86",
      "blockHash": "0x2ba31bf6744dc1029cb70e70186accdfeb2469e0a4b6114961e65e2b61367c4f",
      "blockNumber": "0x463be8",
      "gasUsed": "0xca11",
      "effectiveGasPrice": "0x47",
      "from": "0x061bc6f643038e4d6561af4ebbc0b127cc5316cf",
      "to": "0x885a71e726fe7828d84b876e42c48f97990a5c9d",
      "contractAddress": null
    },
    {
      "status": "0x1",
      "cumulativeGasUsed": "0x137b79c",
      "logs": [
        {
          "address": "0x885a71e726fe7828d84b876e42c48f97990a5c9d",
          "topics": [
            "0xf6391f5c32d9c69d2a47ea670b442974b53935d1edc7fd64eb21e047a839171b",
            "0x0000000000000000000000000000000000000000000000000000000000000000",
            "0x000000000000000000000000061bc6f643038e4d6561af4ebbc0b127cc5316cf",
            "0x000000000000000000000000061bc6f643038e4d6561af4ebbc0b127cc5316cf"
          ],
          "data": "0x",
          "blockHash": "0x2ba31bf6744dc1029cb70e70186accdfeb2469e0a4b6114961e65e2b61367c4f",
          "blockNumber": "0x463be8",
          "blockTimestamp": "0x6818911e",
          "transactionHash": "0x00f8f120a35d5011ec74380aa5e22c0bd794b0711c6ddae07370c86d374f6f0c",
          "transactionIndex": "0x87",
          "logIndex": "0x8f",
          "removed": false
        }
      ],
      "logsBloom": "0x00000000000000000000000400000000000000000000000000000000000000000000000000000000000000000000000000200100000000000000000000000000000000000000000000000000000100000000000000000000000000000000000040000000020000000000000000000800000000000000000000000000001000000000000040000000000000000000000000000000000000000000000080000000000000000000000000000000000000000000000000000000000000000000000000000000000000000000000000000000000000000000000000000000000020000000000000000000000010000000000000000000000000000000000000000000",
      "type": "0x2",
      "transactionHash": "0x00f8f120a35d5011ec74380aa5e22c0bd794b0711c6ddae07370c86d374f6f0c",
      "transactionIndex": "0x87",
      "blockHash": "0x2ba31bf6744dc1029cb70e70186accdfeb2469e0a4b6114961e65e2b61367c4f",
      "blockNumber": "0x463be8",
      "gasUsed": "0x6cb6",
      "effectiveGasPrice": "0x47",
      "from": "0x061bc6f643038e4d6561af4ebbc0b127cc5316cf",
      "to": "0x885a71e726fe7828d84b876e42c48f97990a5c9d",
      "contractAddress": null
    },
    {
      "status": "0x1",
      "cumulativeGasUsed": "0x1387345",
      "logs": [
        {
          "address": "0xdb062b6769cc17ddd055e1a4001f7709bed0c2c0",
          "topics": [
            "0xea8258f2d9ddb679928cf34b78cf645b7feda9acc828e4dd82d014eaae270eba",
            "0x000000000000000000000000061bc6f643038e4d6561af4ebbc0b127cc5316cf",
            "0x0000000000000000000000008a25ab76278fa62979eb40d7aa1e569447ca68c0"
          ],
          "data": "0x",
          "blockHash": "0x2ba31bf6744dc1029cb70e70186accdfeb2469e0a4b6114961e65e2b61367c4f",
          "blockNumber": "0x463be8",
          "blockTimestamp": "0x6818911e",
          "transactionHash": "0x79a4088b8c56eff4f119d4314f80a7bc3b1d27e28120657f0e5d56e153bb57a3",
          "transactionIndex": "0x88",
          "logIndex": "0x90",
          "removed": false
        }
      ],
      "logsBloom": "0x00000000000000000000000000000000000000000000000000000000000000000000400000000000000000000000000000000100000000000000000000000000000000000000000000000000000100000000000000000000000000000000000000000000000000000000000100000000000000000000000000000000000000000000000000000000000000000000000000000000000000000000000000000000200000000000000000000000000000000000000000200000000000000080000400000000000020000000000000000000000000000000000020000001000000000000000000000000000010000000000000000000000000000000000000000000",
      "type": "0x2",
      "transactionHash": "0x79a4088b8c56eff4f119d4314f80a7bc3b1d27e28120657f0e5d56e153bb57a3",
      "transactionIndex": "0x88",
      "blockHash": "0x2ba31bf6744dc1029cb70e70186accdfeb2469e0a4b6114961e65e2b61367c4f",
      "blockNumber": "0x463be8",
      "gasUsed": "0xbba9",
      "effectiveGasPrice": "0x47",
      "from": "0x061bc6f643038e4d6561af4ebbc0b127cc5316cf",
      "to": "0xdb062b6769cc17ddd055e1a4001f7709bed0c2c0",
      "contractAddress": null
    },
    {
      "status": "0x1",
      "cumulativeGasUsed": "0x1392ee9",
      "logs": [
        {
          "address": "0x6dc3fbee136385d5b32a103f4bb6d9fd5e2f8762",
          "topics": [
            "0xea8258f2d9ddb679928cf34b78cf645b7feda9acc828e4dd82d014eaae270eba",
            "0x000000000000000000000000061bc6f643038e4d6561af4ebbc0b127cc5316cf",
            "0x0000000000000000000000008a25ab76278fa62979eb40d7aa1e569447ca68c0"
          ],
          "data": "0x",
          "blockHash": "0x2ba31bf6744dc1029cb70e70186accdfeb2469e0a4b6114961e65e2b61367c4f",
          "blockNumber": "0x463be8",
          "blockTimestamp": "0x6818911e",
          "transactionHash": "0x51162e03aa6b19fc6758119ecd154f408ea05d8f7455f2840844cf102db9de25",
          "transactionIndex": "0x89",
          "logIndex": "0x91",
          "removed": false
        }
      ],
      "logsBloom": "0x00000000000000000004000000000000000000000000000000000000000000000000400000000000000000000000000000000100000000000000000000000000000000000000000000000000000100000000000000000000000000000000000000000000000000000000000010000000000000000000000000000000000000000000000000000000000000000000000000000000000000000000000000000000000000000000000000000000000000000000000000200000000000000080000400000000000020000000000000000000000000000000000020000000000000000000000000000000000010000000000000000000000000000000000008000000",
      "type": "0x2",
      "transactionHash": "0x51162e03aa6b19fc6758119ecd154f408ea05d8f7455f2840844cf102db9de25",
      "transactionIndex": "0x89",
      "blockHash": "0x2ba31bf6744dc1029cb70e70186accdfeb2469e0a4b6114961e65e2b61367c4f",
      "blockNumber": "0x463be8",
      "gasUsed": "0xbba4",
      "effectiveGasPrice": "0x47",
      "from": "0x061bc6f643038e4d6561af4ebbc0b127cc5316cf",
      "to": "0x6dc3fbee136385d5b32a103f4bb6d9fd5e2f8762",
      "contractAddress": null
    },
    {
      "status": "0x1",
      "cumulativeGasUsed": "0x139e3bd",
      "logs": [],
      "logsBloom": "0x00000000000000000000000000000000000000000000000000000000000000000000000000000000000000000000000000000000000000000000000000000000000000000000000000000000000000000000000000000000000000000000000000000000000000000000000000000000000000000000000000000000000000000000000000000000000000000000000000000000000000000000000000000000000000000000000000000000000000000000000000000000000000000000000000000000000000000000000000000000000000000000000000000000000000000000000000000000000000000000000000000000000000000000000000000000",
      "type": "0x2",
      "transactionHash": "0xf01ea4893554fa8f2859cc6b095d9a81658921e5e797c0193756e3c0126a9a3b",
      "transactionIndex": "0x8a",
      "blockHash": "0x2ba31bf6744dc1029cb70e70186accdfeb2469e0a4b6114961e65e2b61367c4f",
      "blockNumber": "0x463be8",
      "gasUsed": "0xb4d4",
      "effectiveGasPrice": "0x47",
      "from": "0x061bc6f643038e4d6561af4ebbc0b127cc5316cf",
      "to": "0x5a7fa3a2e1c7c794413f1dac409f1ce60666fcab",
      "contractAddress": null
    },
    {
      "status": "0x1",
      "cumulativeGasUsed": "0x13a9fc1",
      "logs": [
        {
          "address": "0xab36e285d57679ebbe95b58afa0961951f21c08b",
          "topics": [
            "0x38d16b8cac22d99fc7c124b9cd0de2d3fa1faef420bfe791d8c362d765e22700",
            "0x000000000000000000000000061bc6f643038e4d6561af4ebbc0b127cc5316cf",
            "0x0000000000000000000000008a25ab76278fa62979eb40d7aa1e569447ca68c0"
          ],
          "data": "0x",
          "blockHash": "0x2ba31bf6744dc1029cb70e70186accdfeb2469e0a4b6114961e65e2b61367c4f",
          "blockNumber": "0x463be8",
          "blockTimestamp": "0x6818911e",
          "transactionHash": "0x9759fe0dbe8d7dd543365af683894a78cf410b255eae17c3be1bc869ce8a10e8",
          "transactionIndex": "0x8b",
          "logIndex": "0x92",
          "removed": false
        }
      ],
      "logsBloom": "0x00000000000000000000000000000000000000000000000000000000000000000000000000000000000000000000000000000100000000000000000000000000000000000000000000000000000100000000000000000000000000000000000000000000000000010000000000000000000800000000000000000000000000000000000000000000000000000000000000000000000000000000000000000000000000000000020400000000000000000000000000200000000000000080000000002000000020000000000000000000000000000000000000000000000400000000000000000000000010000000000000000000000000000000000000000000",
      "type": "0x2",
      "transactionHash": "0x9759fe0dbe8d7dd543365af683894a78cf410b255eae17c3be1bc869ce8a10e8",
      "transactionIndex": "0x8b",
      "blockHash": "0x2ba31bf6744dc1029cb70e70186accdfeb2469e0a4b6114961e65e2b61367c4f",
      "blockNumber": "0x463be8",
      "gasUsed": "0xbc04",
      "effectiveGasPrice": "0x47",
      "from": "0x061bc6f643038e4d6561af4ebbc0b127cc5316cf",
      "to": "0xab36e285d57679ebbe95b58afa0961951f21c08b",
      "contractAddress": null
    },
    {
      "status": "0x1",
      "cumulativeGasUsed": "0x13b5b99",
      "logs": [
        {
          "address": "0xc6cb8a7425855f2931709ac9c19e4622b555e646",
          "topics": [
            "0x38d16b8cac22d99fc7c124b9cd0de2d3fa1faef420bfe791d8c362d765e22700",
            "0x000000000000000000000000061bc6f643038e4d6561af4ebbc0b127cc5316cf",
            "0x0000000000000000000000008a25ab76278fa62979eb40d7aa1e569447ca68c0"
          ],
          "data": "0x",
          "blockHash": "0x2ba31bf6744dc1029cb70e70186accdfeb2469e0a4b6114961e65e2b61367c4f",
          "blockNumber": "0x463be8",
          "blockTimestamp": "0x6818911e",
          "transactionHash": "0x19ddf3d54a047ffd208b88afa539630b29e6b8c97715e4a94b2f5d377867d77b",
          "transactionIndex": "0x8c",
          "logIndex": "0x93",
          "removed": false
        }
      ],
      "logsBloom": "0x00000000000000000000100000000000000000000000000000000000000000000000000000000000000000000000000000000100080000000000000000000000000000000000000000000000000100000000000000000000000000000000000000000000000000000000000000000000000800000000000000000000000000000000000000000000000000000000000000000000000000000000000000000000000000000000020000000000000000000000000000200000000000000080000000002000000020000000000000000000000000000000000000000000000000000000000000000000000010000000000000000000020000000000000000000000",
      "type": "0x2",
      "transactionHash": "0x19ddf3d54a047ffd208b88afa539630b29e6b8c97715e4a94b2f5d377867d77b",
      "transactionIndex": "0x8c",
      "blockHash": "0x2ba31bf6744dc1029cb70e70186accdfeb2469e0a4b6114961e65e2b61367c4f",
      "blockNumber": "0x463be8",
      "gasUsed": "0xbbd8",
      "effectiveGasPrice": "0x47",
      "from": "0x061bc6f643038e4d6561af4ebbc0b127cc5316cf",
      "to": "0xc6cb8a7425855f2931709ac9c19e4622b555e646",
      "contractAddress": null
    },
    {
      "status": "0x1",
      "cumulativeGasUsed": "0x13c1771",
      "logs": [
        {
          "address": "0x8b1104c8adf85b67ab22f0a39985a75e2ddc4650",
          "topics": [
            "0x38d16b8cac22d99fc7c124b9cd0de2d3fa1faef420bfe791d8c362d765e22700",
            "0x000000000000000000000000061bc6f643038e4d6561af4ebbc0b127cc5316cf",
            "0x0000000000000000000000008a25ab76278fa62979eb40d7aa1e569447ca68c0"
          ],
          "data": "0x",
          "blockHash": "0x2ba31bf6744dc1029cb70e70186accdfeb2469e0a4b6114961e65e2b61367c4f",
          "blockNumber": "0x463be8",
          "blockTimestamp": "0x6818911e",
          "transactionHash": "0x467a651cdc0a9e581e7c26ab4c177024daf02cdf2b5f3abb5d30b7f3bb5df6d2",
          "transactionIndex": "0x8d",
          "logIndex": "0x94",
          "removed": false
        }
      ],
      "logsBloom": "0x00000000000000000000000000000000000000000000000000000000000000000000000000000000000000000000000000000100000000000000000000000200000000000000000000000000000100000000000000000000000000000000000000000000000000000000000000000000000800000000000000000000000000000000000000000000000000000000000000000000000000000000000000000000000000000000020000000000000000000000000000200000000000000080000000002000000020000000000000000000000000000000000000000000000000000000000000000000000010000000000000000100000000000000000400000000",
      "type": "0x2",
      "transactionHash": "0x467a651cdc0a9e581e7c26ab4c177024daf02cdf2b5f3abb5d30b7f3bb5df6d2",
      "transactionIndex": "0x8d",
      "blockHash": "0x2ba31bf6744dc1029cb70e70186accdfeb2469e0a4b6114961e65e2b61367c4f",
      "blockNumber": "0x463be8",
      "gasUsed": "0xbbd8",
      "effectiveGasPrice": "0x47",
      "from": "0x061bc6f643038e4d6561af4ebbc0b127cc5316cf",
      "to": "0x8b1104c8adf85b67ab22f0a39985a75e2ddc4650",
      "contractAddress": null
    }
  ],
  "libraries": [],
  "pending": [],
  "returns": {},
  "timestamp": 1746440480,
  "chain": 80094,
  "commit": "57a5d3d"
}