{
  "transactions": [
    {
      "hash": "0x9fbe767f503041e73b9f498e4b041b8d38b095ec48dd789a32f58cb4cbe940d8",
      "transactionType": "CALL",
      "contractName": "DistributorV2",
      "contractAddress": "0x5a7fa3a2e1c7c794413f1dac409f1ce60666fcab",
      "function": "removeRecipient(uint256,address)",
      "arguments": [
        "0",
        "0x6DC3FbEe136385D5B32A103f4BB6d9Fd5E2f8762"
      ],
      "transaction": {
        "from": "0x061bc6f643038e4d6561af4ebbc0b127cc5316cf",
        "to": "0x5a7fa3a2e1c7c794413f1dac409f1ce60666fcab",
        "gas": "0xa0da",
        "value": "0x0",
        "input": "0xfe3fbbad00000000000000000000000000000000000000000000000000000000000000000000000000000000000000006dc3fbee136385d5b32a103f4bb6d9fd5e2f8762",
        "nonce": "0x133",
        "chainId": "0x138de"
      },
      "additionalContracts": [],
      "isFixedGasLimit": false
    },
    {
      "hash": "0x627f096a7969627234948f04ed88c17bf5b1d7397ee362adda3832cfe7c693e3",
      "transactionType": "CALL",
      "contractName": "DistributorV2",
      "contractAddress": "0x5a7fa3a2e1c7c794413f1dac409f1ce60666fcab",
      "function": "addRecipient(address,uint256)",
      "arguments": [
        "0x6DC3FbEe136385D5B32A103f4BB6d9Fd5E2f8762",
        "4300"
      ],
      "transaction": {
        "from": "0x061bc6f643038e4d6561af4ebbc0b127cc5316cf",
        "to": "0x5a7fa3a2e1c7c794413f1dac409f1ce60666fcab",
        "gas": "0x18f15",
        "value": "0x0",
        "input": "0xf79822430000000000000000000000006dc3fbee136385d5b32a103f4bb6d9fd5e2f876200000000000000000000000000000000000000000000000000000000000010cc",
        "nonce": "0x134",
        "chainId": "0x138de"
      },
      "additionalContracts": [],
      "isFixedGasLimit": false
    }
  ],
  "receipts": [
    {
      "status": "0x1",
      "cumulativeGasUsed": "0xa74525",
      "logs": [],
      "logsBloom": "0x00000000000000000000000000000000000000000000000000000000000000000000000000000000000000000000000000000000000000000000000000000000000000000000000000000000000000000000000000000000000000000000000000000000000000000000000000000000000000000000000000000000000000000000000000000000000000000000000000000000000000000000000000000000000000000000000000000000000000000000000000000000000000000000000000000000000000000000000000000000000000000000000000000000000000000000000000000000000000000000000000000000000000000000000000000000",
      "type": "0x2",
      "transactionHash": "0x9fbe767f503041e73b9f498e4b041b8d38b095ec48dd789a32f58cb4cbe940d8",
      "transactionIndex": "0x2c",
      "blockHash": "0x19bf3d3e5c69f0875cb25de9d405d51e691204c1be54fa23974b1602b4e5a382",
      "blockNumber": "0x42e627",
      "gasUsed": "0x7475",
      "effectiveGasPrice": "0x44",
      "from": "0x061bc6f643038e4d6561af4ebbc0b127cc5316cf",
      "to": "0x5a7fa3a2e1c7c794413f1dac409f1ce60666fcab",
      "contractAddress": null
    },
    {
      "status": "0x1",
      "cumulativeGasUsed": "0xa86614",
      "logs": [],
      "logsBloom": "0x00000000000000000000000000000000000000000000000000000000000000000000000000000000000000000000000000000000000000000000000000000000000000000000000000000000000000000000000000000000000000000000000000000000000000000000000000000000000000000000000000000000000000000000000000000000000000000000000000000000000000000000000000000000000000000000000000000000000000000000000000000000000000000000000000000000000000000000000000000000000000000000000000000000000000000000000000000000000000000000000000000000000000000000000000000000",
      "type": "0x2",
      "transactionHash": "0x627f096a7969627234948f04ed88c17bf5b1d7397ee362adda3832cfe7c693e3",
      "transactionIndex": "0x2d",
      "blockHash": "0x19bf3d3e5c69f0875cb25de9d405d51e691204c1be54fa23974b1602b4e5a382",
      "blockNumber": "0x42e627",
      "gasUsed": "0x120ef",
      "effectiveGasPrice": "0x44",
      "from": "0x061bc6f643038e4d6561af4ebbc0b127cc5316cf",
      "to": "0x5a7fa3a2e1c7c794413f1dac409f1ce60666fcab",
      "contractAddress": null
    }
  ],
  "libraries": [],
  "pending": [],
  "returns": {},
  "timestamp": 1746002126,
  "chain": 80094,
  "commit": "7a21c7f"
}