{
  "transactions": [
    {
      "hash": "0xe77cf57a66450940710885d0489d5667a96ed2b50443a46111c8c4852ff4087c",
      "transactionType": "CALL",
      "contractName": null,
      "contractAddress": "0xa62f03a696e61ddcf333e9a1ed505c764f14b9d2",
      "function": "toggle(uint8,address,address)",
      "arguments": [
        "0",
        "0xACEFDe613D8573405A56169Dc2c7f0504F539854",
        "0x0000000000000000000000000000000000000000"
      ],
      "transaction": {
        "from": "0x061bc6f643038e4d6561af4ebbc0b127cc5316cf",
        "to": "0xa62f03a696e61ddcf333e9a1ed505c764f14b9d2",
        "gas": "0x200e0",
        "value": "0x0",
        "input": "0xfbfd393b0000000000000000000000000000000000000000000000000000000000000000000000000000000000000000acefde613d8573405a56169dc2c7f0504f5398540000000000000000000000000000000000000000000000000000000000000000",
        "nonce": "0xed",
        "chainId": "0x138de"
      },
      "additionalContracts": [],
      "isFixedGasLimit": false
    },
    {
      "hash": "0x4a3e70fb3b6b418b9eb20d3ea4762e46260d99a10334016b4c7857e8a4acd1de",
      "transactionType": "CALL",
      "contractName": null,
      "contractAddress": "0xa62f03a696e61ddcf333e9a1ed505c764f14b9d2",
      "function": "toggle(uint8,address,address)",
      "arguments": [
        "8",
        "0x4D04812cE63CfC12B03e28eb2e37e8ab0e65DB34",
        "0x0000000000000000000000000000000000000000"
      ],
      "transaction": {
        "from": "0x061bc6f643038e4d6561af4ebbc0b127cc5316cf",
        "to": "0xa62f03a696e61ddcf333e9a1ed505c764f14b9d2",
        "gas": "0x20437",
        "value": "0x0",
        "input": "0xfbfd393b00000000000000000000000000000000000000000000000000000000000000080000000000000000000000004d04812ce63cfc12b03e28eb2e37e8ab0e65db340000000000000000000000000000000000000000000000000000000000000000",
        "nonce": "0xee",
        "chainId": "0x138de"
      },
      "additionalContracts": [],
      "isFixedGasLimit": false
    },
    {
      "hash": "0x0bddab4449fd1b2c743e0e19327377fa0e677ca043dcd54503a41897ff6d4dbf",
      "transactionType": "CALL",
      "contractName": null,
      "contractAddress": "0xa62f03a696e61ddcf333e9a1ed505c764f14b9d2",
      "function": "toggle(uint8,address,address)",
      "arguments": [
        "9",
        "0x453e0Ce636ACd3A2dE115eB3deBe6dfc914A7c58",
        "0x0000000000000000000000000000000000000000"
      ],
      "transaction": {
        "from": "0x061bc6f643038e4d6561af4ebbc0b127cc5316cf",
        "to": "0xa62f03a696e61ddcf333e9a1ed505c764f14b9d2",
        "gas": "0x10e67",
        "value": "0x0",
        "input": "0xfbfd393b0000000000000000000000000000000000000000000000000000000000000009000000000000000000000000453e0ce636acd3a2de115eb3debe6dfc914a7c580000000000000000000000000000000000000000000000000000000000000000",
        "nonce": "0xef",
        "chainId": "0x138de"
      },
      "additionalContracts": [],
      "isFixedGasLimit": false
    }
  ],
  "receipts": [
    {
      "status": "0x1",
      "cumulativeGasUsed": "0x131a616",
      "logs": [
        {
          "address": "0xa62f03a696e61ddcf333e9a1ed505c764f14b9d2",
          "topics": [
            "0x0dcacb7e392f3d6a216ed2660e3dcfd40b7793d33591db2ba185a6b8e44fc477",
            "0x0000000000000000000000000000000000000000000000000000000000000000"
          ],
          "data": "0x000000000000000000000000acefde613d8573405a56169dc2c7f0504f5398540000000000000000000000000000000000000000000000000000000000000001",
          "blockHash": "0xd4a46b45a0de82a301a1f5d152fe44bdab29eb670cb0ef2f5a228a35368fab78",
          "blockNumber": "0x3a84f2",
          "blockTimestamp": "0x68014f5f",
          "transactionHash": "0xe77cf57a66450940710885d0489d5667a96ed2b50443a46111c8c4852ff4087c",
          "transactionIndex": "0x36",
          "logIndex": "0xf7",
          "removed": false
        }
      ],
      "logsBloom": "0x00000000000000000000100000000000000000000000000000000000000000000000000000000000000000000000000000000000000000000000000000000000000000000000000000000000000000000000000000000000002000000000000000000000020000004000000000000800000000000000000000000000000000000000000000000000000000000000000000000000000000000000000000000000000000000000000000000000000000000000000000000000000000000004000000000000000000000000000000000000000000000000000000000000000022000000000000000000000000000000000000000000000000000000000100000000",
      "type": "0x2",
      "transactionHash": "0xe77cf57a66450940710885d0489d5667a96ed2b50443a46111c8c4852ff4087c",
      "transactionIndex": "0x36",
      "blockHash": "0xd4a46b45a0de82a301a1f5d152fe44bdab29eb670cb0ef2f5a228a35368fab78",
      "blockNumber": "0x3a84f2",
      "gasUsed": "0x17350",
      "effectiveGasPrice": "0x1a",
      "from": "0x061bc6f643038e4d6561af4ebbc0b127cc5316cf",
      "to": "0xa62f03a696e61ddcf333e9a1ed505c764f14b9d2",
      "contractAddress": null
    },
    {
      "status": "0x1",
      "cumulativeGasUsed": "0x1331bd2",
      "logs": [
        {
          "address": "0xa62f03a696e61ddcf333e9a1ed505c764f14b9d2",
          "topics": [
            "0x0dcacb7e392f3d6a216ed2660e3dcfd40b7793d33591db2ba185a6b8e44fc477",
            "0x0000000000000000000000000000000000000000000000000000000000000008"
          ],
          "data": "0x0000000000000000000000004d04812ce63cfc12b03e28eb2e37e8ab0e65db340000000000000000000000000000000000000000000000000000000000000001",
          "blockHash": "0xd4a46b45a0de82a301a1f5d152fe44bdab29eb670cb0ef2f5a228a35368fab78",
          "blockNumber": "0x3a84f2",
          "blockTimestamp": "0x68014f5f",
          "transactionHash": "0x4a3e70fb3b6b418b9eb20d3ea4762e46260d99a10334016b4c7857e8a4acd1de",
          "transactionIndex": "0x37",
          "logIndex": "0xf8",
          "removed": false
        }
      ],
      "logsBloom": "0x00000000000000000000100000000000000000000000000000000000000000000000000000000000000000000000000000000000000080000000000000000000000000000000000000000000000000000000000000000000002000000000000000000000000000004000000000000000000000000000000000000000000000000080000000000000000000000000000000000000000000000000000000000000000000000000000000000000000000000000000000000000000000000004000040000000000000000000000000000000000000000000000000000000000002000000000000000000000000000000000000000000000000000000000100000000",
      "type": "0x2",
      "transactionHash": "0x4a3e70fb3b6b418b9eb20d3ea4762e46260d99a10334016b4c7857e8a4acd1de",
      "transactionIndex": "0x37",
      "blockHash": "0xd4a46b45a0de82a301a1f5d152fe44bdab29eb670cb0ef2f5a228a35368fab78",
      "blockNumber": "0x3a84f2",
      "gasUsed": "0x175bc",
      "effectiveGasPrice": "0x1a",
      "from": "0x061bc6f643038e4d6561af4ebbc0b127cc5316cf",
      "to": "0xa62f03a696e61ddcf333e9a1ed505c764f14b9d2",
      "contractAddress": null
    },
    {
      "status": "0x1",
      "cumulativeGasUsed": "0x133df97",
      "logs": [
        {
          "address": "0xa62f03a696e61ddcf333e9a1ed505c764f14b9d2",
          "topics": [
            "0x0dcacb7e392f3d6a216ed2660e3dcfd40b7793d33591db2ba185a6b8e44fc477",
            "0x0000000000000000000000000000000000000000000000000000000000000009"
          ],
          "data": "0x000000000000000000000000453e0ce636acd3a2de115eb3debe6dfc914a7c580000000000000000000000000000000000000000000000000000000000000001",
          "blockHash": "0xd4a46b45a0de82a301a1f5d152fe44bdab29eb670cb0ef2f5a228a35368fab78",
          "blockNumber": "0x3a84f2",
          "blockTimestamp": "0x68014f5f",
          "transactionHash": "0x0bddab4449fd1b2c743e0e19327377fa0e677ca043dcd54503a41897ff6d4dbf",
          "transactionIndex": "0x38",
          "logIndex": "0xf9",
          "removed": false
        }
      ],
      "logsBloom": "0x00000000000000000000100000000000000000000000000000000000000000000000000000000000000000000000000000000000000000000000000000200000000000000000000000000000000000000000000000000000002000000000000000000000000000004000000000000000000000000000000000000000000000000000000000000000000000000000000000001000000000000000000000000000000000000000000000000000000000000000000000000000000000000004000000000000000000000000000000000000000000000000000000000000000002000000000000000000000000000000000000000000000000000000000100800000",
      "type": "0x2",
      "transactionHash": "0x0bddab4449fd1b2c743e0e19327377fa0e677ca043dcd54503a41897ff6d4dbf",
      "transactionIndex": "0x38",
      "blockHash": "0xd4a46b45a0de82a301a1f5d152fe44bdab29eb670cb0ef2f5a228a35368fab78",
      "blockNumber": "0x3a84f2",
      "gasUsed": "0xc3c5",
      "effectiveGasPrice": "0x1a",
      "from": "0x061bc6f643038e4d6561af4ebbc0b127cc5316cf",
      "to": "0xa62f03a696e61ddcf333e9a1ed505c764f14b9d2",
      "contractAddress": null
    }
  ],
  "libraries": [],
  "pending": [],
  "returns": {},
  "timestamp": 1744916321,
  "chain": 80094,
  "commit": "6cea711"
}